:1040000060200020C16C0000E9A50000AD6C00003C
:10401000AD6C0000AD6C0000AD6C00000000000055
:10402000000000000000000000000000DD6D000046
:10403000AD6C000000000000A96D0000B575000027
:10404000356F0000356F0000356F0000356F0000E0
:10405000356F0000356F0000356F0000356F0000D0
:10406000356F0000356F0000356F0000356F0000C0
:10407000356F0000356F0000356F0000356F0000B0
:10440000FFFFFFFFDFCEFFFFFCFFFF00FFFFFF000E
:10441000FCFFFF00FFFFFF00FCFFFF00FFFFFF00AE
:10442000FCFF0F20FFFF0F20FCFF7F40FFFF7F40BE
:10443000FCFFDF40FFFFDF40FFFFFFFFFFFFFFFF4D
:10444000FFFFFFFFFFFFFFFFFFFFFFFFFFFFFFFF7C
:10445000FFFFFFFFFFFFFFFFFFFFFFFFFFFFFFFF6C
:10446000FFFFFFFFFFFFFFFFFFFFFFFFFFFFFFFF5C
:10447000FFFFFFFFFFFFFFFFFFFFFFFFFFFFFFFF4C
:10448000FFFFFFFFFFFFFFFFFFFFFFFFFFFFFFFF3C
:10449000FFFFFFFFFFFFFFFFFFFFFFFFFFFFFFFF2C
:1044A000FFFFFFFFFFFFFFFFFFFFFFFFFFFFFFFF1C
:1044B000FFFFFFFFFFFFFFFFFFFFFFFFFFFFFFFF0C
:1044C000FFFFFFFFFFFFFFFFFFFFFFFFFFFFFFFFFC
:1044D000FFFFFFFFFFFFFFFFFFFFFFFFFFFFFFFFEC
:1044E000FFFFFFFFFFFFFFFFFFFFFFFFFFFFFFFFDC
:1044F000FFFFFFFFFFFFFFFFFFFFFFFFFFFFFFFFCC
:104500007BB972B90029BEBF00204FF0004106E020
:1045100008BF00281CBF6FF000414FF0FF3000F0D3
:1045200057B8ADF1080C6DE904CE002909DB002B6A
:104530001ADB00F04FF8DDF804E0DDE9022304B0F7
:104540007047404261EB4101002B1BDB00F042F859
:10455000DDF804E0DDE9022304B0404261EB4101F3
:10456000524263EB43037047524263EB430300F054
:1045700031F8DDF804E0DDE9022304B0404261EBEC
:1045800041017047524263EB430300F023F8DDF82A
:1045900004E0DDE9022304B0524263EB43037047B9
:1045A00053B94AB9002908BF00281CBF4FF0FF319A
:1045B0004FF0FF3000F00CB8ADF1080C6DE904CEFF
:1045C00000F008F8DDF804E0DDE9022304B07047EC
:1045D000704700BF2DE9F04786468C460846089E86
:1045E000154674461946002B40F0C2808542B2FA47
:1045F00082F245D94AB1C2F1200300FA02FC2EFA38
:1046000003F3954043EA0C0C94404FEA154EA8B2D0
:10461000BCFBFEF8230C0EFB18CC08FB00F943EAA8
:104620000C43994528D9EB1808F1FF3704D2994576
:1046300002D9A8F102072B44A3EB0903A4B2B3FBF0
:10464000FEFC0EFB1C330CFB00F044EA0344A042CA
:1046500014D92C190CF1FF3304D2A04202D9ACF1C9
:1046600002032C44241A43EA07401EB1D44000231D
:1046700034607360BDE8F0874746DDE76346F1E7E5
:1046800092BB431B01214FEA154EAFB2B3FBFEFCB8
:10469000200C0EFB1C330CFB07F840EA0343984543
:1046A00062D9EB180CF1FF3004D2984502D9ACF175
:1046B00002002B44A3EB0803A4B2B3FBFEFC0EFBE9
:1046C0001C330CFB07F744EA0344A7424ED92C19CC
:1046D0000CF1FF3304D2A74202D9ACF102032C44FF
:1046E000E41B43EA0040C0E7C2F1200320FA03F1D3
:1046F000954090402EFA03F303434FEA154EAFB2B4
:10470000B1FBFEFC0EFB1C10190C0CFB07F841EA78
:104710000041884504FA02F422D969180CF1FF30EF
:1047200004D2884502D9ACF102002944A1EB08016A
:104730009BB2B1FBFEFC0EFB1C110CFB07F743EA1E
:1047400001439F420ED9EB180CF1FF3104D29F4276
:1047500002D9ACF102012B44DB1B41EA004192E794
:104760006046E3E76146F7E76046A3E76346B7E7DD
:10477000834206D916B9002108467BE7C6E900E066
:10478000F9E7B3FA83F78FB9834201D3724508D8AA
:10479000BEEB020460EB030301209C461EB900211E
:1047A00068E73846FAE7C6E9004CF8E7C7F1200C9D
:1047B000BB4022FA0CF41C432EFA0CF120FA0CF345
:1047C000B84001434FEA14490EFA07F5B3FBF9F874
:1047D0001FFA84FE09FB18300B0C08FB0EFA43EAA3
:1047E00000439A4502FA07F240D9E31808F1FF3076
:1047F00004D29A4502D9A8F102002344A3EB0A038C
:1048000089B2B3FBF9F809FB183308FB0EFE41EA45
:1048100003418E452CD9611808F1FF3304D28E452F
:1048200002D9A8F10203214443EA0040A0FB029808
:10483000A1EB0E014145CE46434602D306D14D457C
:1048400004D2B9EB020E68EB04030138002EA6D0A7
:10485000B5EB0E0261EB030101FA0CFC22FA07F33F
:104860004CEA0303F940C6E9003198E74046C5E742
:104870004346D9E710F8012B11F8013B012A28BF64
:104880009A42F7D0D01A7047034611F8012B03F86B
:10489000012B002AF9D17047034613F8012B002A97
:1048A000FBD1181A013870472DE9F047044688B04B
:1048B0008846174606F03EFD0A220023FFF770FEE9
:1048C000B8F1010F06460D4607D102460B462046B9
:1048D000274904F0DBFF002011E07F6825483946B6
:1048E000FFF7C8FF70B124483946FFF7C3FF48B14E
:1048F000204622493A4604F0E5FF6FF0040008B074
:10490000BDE8F0873046294617A3D3E90023FFF717
:10491000F7FD06460D4610461946194A0023FFF7D3
:10492000EFFD80460F46104619464EF660220023E2
:10493000FFF7E6FD82468946104619464FF47A7223
:104940000023FFF7DDFDCDE902A9CDE90623CDE97E
:104950000401CDE900870B4932462B46204604F07E
:1049600095FFB8E7AFF30080005C2605000000006B
:1049700080BF000091BF000094BF00009DBF0000F9
:1049800080EE3600B4BF0000F8B5174D284606F09B
:1049900031FB044630B32A69A968136823F0040385
:1049A00013600B684FF42022022128469847002804
:1049B00018DB0E4F0E4EAB6804219B6928469847C2
:1049C00000280FDB84F0010414F0FF0414BF394603
:1049D0003146084804F01EF9002142F2107003F03D
:1049E000E7FCE8E70020F8BDC4B8000050BF0000B5
:1049F00053BF000057BF0000014B1B68184700BFA2
:104A000000000020014B1860704700BF000000202C
:104A100030B585B004460D4610220021684606F0E8
:104A2000FFFE02238DF802302A46044B01932146F3
:104A3000684604F009FA05B030BD00BFF94900002E
:104A400080B505460E461746984603F0CFFC034650
:104A500006F0F6FEDFF81890044649F800304246AA
:104A600030463946A84754F8090002F04BF900BF18
:104A70000800000008B5034A034904F007FF0020BE
:104A800008BD00BF66BF00006DBF000010B5044642
:104A900002F096FE07490246204604F0F7FE204643
:104AA000054904F0F3FE0548214603F05BFD0020B4
:104AB00010BD00BF02C0000021C00000C14A0000BC
:104AC00070B58EB004460D46D0F89C6006F0E5FA4D
:104AD000034606F0B5FE214A21491058214A002B11
:104AE00018BF1A460092204A2346844218BF0A463D
:104AF00028461E4904F0CAFED4E90A23CDE9002362
:104B0000284694F90E30227B194904F0BFFE06A90D
:104B10002022204603F0E0F8636E1649024628463C
:104B200004F0B4FE05A9204606F0C7FA024628B1F3
:104B30001149284604F0AAFE0EB070BD059B642200
:104B4000F11A4A430091B2FBF6F20C49CDE9016239
:104B50002846324604F09AFEEEE700BF0800000047
:104B60005FC800002BC0000052CF00002EC0000024
:104B70003AC0000066C000007DC00000AAC000006E
:104B8000F0B5002591B00446294608AF1C2209A8BB
:104B900006F046FE134E1A222021384606F040FE4B
:104BA0002146114803F0DEFC07AA4FF400613046AD
:104BB00006F077FA079A0097C2F5006164234B4329
:104BC000DB0A05934FF40063CDE90313CDE901320D
:104BD000204606492B46324604F058FE284611B0BE
:104BE000F0BD00BF601300204D4C0000E1C000008C
:104BF00010B5044602F008FE03490246204604F0C0
:104C000045FE002010BD00BF2AC1000037B5134685
:104C100000220192054601AA58680A2101F076FA9D
:104C2000019C4CB920EAE0700A2180FB010103F0ED
:104C3000BFFB204603B030BD22460349284604F09E
:104C400041FE019CF5E700BF40C1000070B504467D
:104C5000D0F89C6088B00D4607A906F02EFA0246EF
:104C600028B10F49284604F011FE08B070BD204657
:104C700006F013FA079B0096F11ACDE90131094BB2
:104C800064224A43002818BF0346B2FBF6F20649E5
:104C9000CDE903622846224604F0F8FDE5E700BFAF
:104CA0007DC000002BC0000060C100002DE9F04372
:104CB00087B00546684602F0DFFD009E184A194F8E
:104CC000DFF86480DFF86490142303FB006608219A
:104CD000284604F0CEFD009CB44203D3002007B068
:104CE000BDE8F08323680BB11A7832B923463A46FF
:104CF000142101A803F0A0FF01AB42460821284679
:104D000004F0B7FD204606F075F9094B094A002862
:104D100008BF4B460821284604F0ABFD1434DBE7FE
:104D200082C200008CC2000091C2000079C2000063
:104D300073C20000E7C800008B1E022B2DE9F04172
:104D400007468846144637D860681022002104F0D0
:104D500015F8B8F1020F064607D1264A202308218C
:104D6000384604F086FD336816E00A220021A06868
:104D700004F004F8C5B21F4A2B460821384604F057
:104D800078FDB8F1040F1AD0102D0DD0202DEAD0E7
:104D9000082D0CD13378DBB2174A0821384604F0CD
:104DA00068FD0020BDE8F08133889BB2F4E7134A28
:104DB0000821384604F05DFD6FF01500F2E7E06869
:104DC0001022002103F0DAFF0D4A034604460821B1
:104DD000384604F04EFD102D06D0202D07D0082DAA
:104DE000E5D1E4B23470DCE7A4B23480D9E73460B2
:104DF000D7E700BFCAC20000F5C20000DFC2000052
:104E000006C300002DE9F04F5A4BDFF86CA185B0C6
:104E100091460122074688461A6002F0DFF84FF0FB
:104E2000FF3520262C4649465246404602F0FAF805
:104E3000411C06D16A1C50D15049384604F042FD4D
:104E40001CE073281FD0772832D0612816D1DFF8F4
:104E500030B11022DBF80000002103F08FFF05467F
:104E60000028E0D106F0ECFC464B1B58162BDAD19B
:104E7000DBF800204449384604F024FD6FF01500AB
:104E800005B0BDE8F08FDFF8F8B00022DBF80000D5
:104E9000114603F073FF04460028C4D106F0D0FC8D
:104EA000384B1B58162BBED1DBF800203749E2E700
:104EB000DFF8CCB00022DBF80000114603F05EFF03
:104EC00006460028AFD106F0BBFC2E4B1B58162B14
:104ED000A9D1DBF800202E49CDE7631C01D12D4973
:104EE000ABE75FFA86F8C6F3C406002C3FD06B46EA
:104EF00029461A46A6EB050C0CE0B8F1100F1DD0A0
:104F0000B8F1200F20D0B8F1080F2AD10878187016
:104F100031443344A64203D80CEB01001028ECD9ED
:104F2000102CA14628BF4FF0100929464B463846A1
:104F300000F0C4FF1035A4EB0904D6E7088880B25E
:104F40001870000A5870E3E7086818704FEA102ECE
:104F500083F801E04FEA104E000E83F802E0D870AB
:104F6000D6E70D4A0821384604F083FC86E7204640
:104F700086E700BF6C00002054C300005BC3000044
:104F8000500A00200C0000001AC300002DC30000CE
:104F900040C3000078C30000DFC2000070B50F4EB0
:104FA000044633780D4671B123B1BDE870400C4919
:104FB00004F088BC012333700A49204604F066FCE3
:104FC0000123337004E083F001033370002BF3D12D
:104FD00029462046BDE8704004F0B7BC340B0020E1
:104FE00092C30000CDC3000070B504463B4803786F
:104FF000182B02D10B78112B31D0013A0B468D18AA
:10500000AB4225D18B5C0A780370A2F13003092BE7
:10501000334C04D922F02003413B052B04D82368EC
:105020003049CA54013323602368022B33D1102244
:105030002C48002103F0A2FE2B4A136803F8010B51
:1050400013602A4A1368013313600023236022E0AF
:1050500013F8016B182ED3D11E78112ED0D1234D09
:1050600023492A68204604F011FC20460021FFF75E
:1050700095FF204B187870B91F4A2B681168042BD4
:105080000ADC08B111602B6013F003010BD1126828
:1050900013681BBA136070BD086800BA41F8040BAE
:1050A000043B0120EBE75B4203F0030358BF594286
:1050B000022904D1126813885BBA9BB2EAE703297C
:1050C000E9D1106802681104C2F3074301F47F01BB
:1050D0000B4302F47F4213430360DCE7350B0020EF
:1050E00000070020370B00200C07002004070020D9
:1050F000F7C30000360B0020080700202DE9F84F09
:105100000C462B49DFF8AC80DFF8AC90DFF8ACB090
:1051100000230B602A4988F8003006460B601546CC
:10512000012C2F4655F804AF1ED90222494650469D
:1051300006F0B3FA80B99AF80220003A18BF0122AB
:10514000924420490222504606F0A7FA30B90123C2
:1051500088F80030013CE3E70022F1E74946504679
:10516000FFF788FBA8B9043700221146786803F0DE
:105170008FFD154B002211461860786803F088FDFA
:10518000124B134918603046FFF708FF0020BDE8B6
:10519000F88F9AF800202D2AE6D19AF80120002AEB
:1051A000E2D052465946304604F070FBD2E700BFC9
:1051B00000070020360B002011C4000017C40000B7
:1051C0000407002014C400000C070020080700207A
:1051D000E94F000013B5094805F00CFF58B1084A23
:1051E00006491268074800240094012300F0CCFE11
:1051F000204602B010BD6FF01200FAE7D8B80000E8
:1052000014BB000030B9000010B54468C4E90012B6
:10521000A36042684023D36402F158031363002360
:105220000821C2E90E33C2E91133C2E90633C2E9EB
:105230000933D1621468536302F1500113641161A0
:1052400053611362C2F8D030A36823B19B6C13B1D1
:10525000044920469847A3689B6A0BB120469847AB
:10526000002010BDFF95000010B58168044618317C
:1052700001F080F9A168034A20461831BDE81040CA
:1052800001F01EB98CC5000038B58368D3F87832B8
:10529000DB0704461AD4406803685B6898470546F4
:1052A00020B9E06805F0D6F8A3681D75A3685B6CAB
:1052B00013B1294620469847A36806F0C1FA002298
:1052C000C3F82023034B185801F01CFD6FF00F05A5
:1052D000ECE700BF08000000014904F048BA00BF35
:1052E000DFC00000F7B504468068D0F878325A076E
:1052F0000D4605D5002104F05CFAE06805F07CF865
:10530000E368DB6873B9002D3BD0A66806F1560749
:10531000384604F026FA002835D0394606F5AB7039
:10532000FFF7B2FAA268E0680DF10603563229468B
:1053300005F065F858B9A06800F5AB715630FFF775
:10534000A3FAA068563004F00CFAADF80600204627
:1053500004F0EDFDA368D3F874329B0603D50B4926
:10536000606904F004FA204600F038FFA268BDF836
:105370000630A2F85230A2682046A2F8503004F05D
:105380003BFD03B0F0BD86F85601CBE7A0B90000A5
:105390002DE9F04FA7B004465422002111A806F0D1
:1053A0003FFA0023CDE90533A36820465633029324
:1053B00004F0C4FD204604F008FD10B96069FFF751
:1053C0008BFFA06814220021183006F029FA20462D
:1053D00004F0A2FCA168E068B1F850205631002624
:1053E00005F044F8204605F0C3F84FF0FF37B24609
:1053F00003960DF14408B3463546B146DDE9053262
:10540000012A6DD0132B6ED85FBBBBF1000F0AD001
:10541000204605F0CEF8A2681423563211A90DEBF0
:10542000030004F0F8FAB9F1000F0CD099F811302C
:10543000FE2B08D1059B26AA02EB830252F8542CBE
:105440000AB101330593A068059D436A002B40F023
:10545000B680CEB1C3699E422DD00D9600F11805DD
:1054600024E0029A0223414606A804F0D4FA0699E1
:10547000D8F804200292034631B101290AD148B17B
:105480006D4A204604F00CFE6FF00705284627B051
:10549000BDE8F08F059B002B34D0D8F8000001F058
:1054A00089F898B166B1A5680D9618350CAE0FCE87
:1054B0000FC533682B602046FFF7D6FE0125E5E7D0
:1054C0005E4A0121204604F0EBFDDDE7059BCBB1F0
:1054D000D8F800202946204601F00EFA022809D10A
:1054E000059B132B91D9069B022B8ED1544B554A09
:1054F0000121C6E7032805D0059B013305934FF032
:10550000010B7BE7039B33B9D8F8001007AA484684
:1055100004F078FB054608F10408013F9DB3EB68F1
:10552000BBF1000F08D0F3B1204604F007FD204680
:1055300004F062FC444AC4E7ABB1A368DDF814A0F0
:10554000AE4603F1180CBEE80F00ACE80F00DEF821
:105550000030CCF80030AB682BB96B7CFE2B04BF5D
:105560002F7C07F1FF37D5F804C0BCF1000F08D03D
:10557000AE46BEE80F000CAE0FC6DEF8003033605A
:105580006646A94603E0059B53B101230393069B9E
:1055900017B9022B7FF432AF059B013305932DE73A
:1055A000A368DB6A13B1DB68002BEED1274B0093B5
:1055B000274A119B0121204604F072FDE5E790F88F
:1055C0002830A5EB0A05BBB190F829104FF6FF7201
:1055D000FF2918BF0A469D4202D313449D420BD9AE
:1055E00083691C4A0121204604F05AFD2046FFF73A
:1055F0003BFE6FF0150549E7012104F0CFF8A068E4
:1056000000F5437004F0EEF8A36811AA294602EBF6
:105610008A025B6A204698470546A0684FF0FF3231
:105620004FF0FF3300F5437004F083F8A0680021C9
:1056300004F0B4F82AE700BF9AC50000AEC5000028
:105640000FC6000062BF0000CCC50000FBC5000013
:1056500014C9000033C6000010B5836802221A7511
:1056600083689B6C0446BBB904F03AF88368D3F8AE
:105670007832DB040BD50321084B094A04F010FDF6
:10568000A0686FF4805100F51E7004F043F82046C6
:10569000BDE8104000F0F6BE10BD00BF4EC60000D1
:1056A00093C200002DE9F04F04468068B1B001219B
:1056B00000F51E7004F01FF8A3681B7D022B20D19B
:1056C00000230993A36860689E6C03681D6909AB99
:1056D0000EB310221BA9A847099B93B1A068012112
:1056E00004F05CF8099A1BA92046B047A068002185
:1056F00004F054F8A3689B6C002BE3D12046FFF71D
:10570000ABFFA0686FF0010100F51E7031B0BDE87D
:10571000F04F03F0FFBF01220DF12301A847099BC1
:10572000002BEED09DF923209DF82310A368002ABA
:10573000C8DB5A7D032A00F29882DFE812F00400E9
:1057400085029C0296020D297CD00A2958D0B3F814
:1057500078226FF3CA02A3F878220929A06800F022
:1057600086803DD80029ADD0082900F0FC81034691
:10577000D3F874229207A5D501391629A2D801A21F
:1057800052F821F0195D0000A15B0000A95B000048
:10579000995B00000D5D0000C75B0000C55600006E
:1057A000C5560000C5560000C5560000CF5B00007E
:1057B000D75B0000C5560000015C0000C556000024
:1057C0000B5C0000C5560000C5560000C556000021
:1057D000C55600000F5C0000C5560000395C000093
:1057E0001B2941D07F2900F0CA81A1F120025E2A45
:1057F0000346BDD8012103F0DCFF9DF82310B9E07A
:10580000D3F87822C2F3C7022AB1D3F87822C2F3C0
:10581000C7020A2AACD1B3F8782261F3CA02A3F80E
:105820007822A568B5F85010C1B9284603F0C1FF29
:10583000E06804F0E1FD6069FFF74EFD2046FFF7E8
:105840000BFF3FE7D3F87822C2F3C702002AE2D069
:10585000D3F87822C2F3C7020D2ADBE72046FFF710
:1058600097FDC5F82403E9E7012343752AE7D0F83B
:1058700074329B077FF526AF012103F09AFFA068E1
:10588000B0F85030FF2B3FF41DAFB0F8522000F1BC
:10589000560100F5AB7005F09BFFA368B3F85220EA
:1058A0001344002583F85651A2681BA9142302F55E
:1058B000AB720BA804F0AFF80B9914293FF602AFB6
:1058C00030AB03EB810343F8545CA368B3F8522078
:1058D000002A53D0134493F85530202B02D0093BB3
:1058E000042B4BD800294CD100250A950A9B30AADD
:1058F00002EB8303002653F854AC504603F031FF0B
:10590000B3468146B046374616AA3946284600F0C7
:10591000C3FB0346002840D1012EA76865D10A9B2E
:1059200030AA02EB830353F8540C03F01AFF07F17B
:10593000180206464146284600F0AEFB0568284698
:1059400003F00FFF864205D0821B92B2A9192046B0
:1059500004F0EDFBA068B0F85230034493F85630E1
:10596000202B31D0093B042B2ED9D0F87432DF071D
:105970002FD42021204600F04DFDA3E60129B3D904
:10598000013900200CAB009301900AAB1BAA04F074
:1059900064F905460028A9D194E61B6803934A469A
:1059A0005146184605F079FE60B9039B1846FEF78C
:1059B00073FF584538BF58461FFA80FB002E08BFBA
:1059C000B846013601379FE70121204604F048FA26
:1059D00078E6002103F0F7FE2021204600F01AFDB2
:1059E000A068012103F0EFFE6CE604907FF66AAE3A
:1059F0000A9A30AB03EB8202C14652F8543C03933F
:105A0000184603F0AEFE049B0590A7F840300496BC
:105A1000A26849461832284600F03EFB039BD0F8A6
:105A200000A009F101094BB1BAF1000F06D0059AA7
:105A30001946504605F031FE0028E9D1A168BAF1B7
:105A4000000F4ED1A1F840A0049B013B0493DFD18D
:105A50006069FFF741FC204600F014FD0A9B30AA64
:105A600002EB830308F1010A53F8540C03F079FEAA
:105A7000414611AA8146284600F00EFB0746A06861
:105A80003968FF2200F5AB7005F019FE3B680393FF
:105A90004FF6FF77B84616AA514628460AF1010B81
:105AA00000F0FAFA002852D0A168036801F25511FB
:105AB000002211F801EF985C704503D110B101325A
:105AC0004245F6D1B9F1000F01D04A4507DBBA4291
:105AD00006F1FF36A8BF3A46012E97B237D0DA4614
:105AE000D9E79948069103F03CFE069907914A8F41
:105AF00000EB0B07BFB2121A504692FBF7F292B2BC
:105B0000069203F02EFE0799069A3F1AB1F840005C
:105B100000F1010CA1F840C0B0FBF2F102FB110052
:105B200080B2BFB260B9884B884ACDF800A0062188
:105B3000204604F0B5FA3946204600F039FB83E7E9
:105B4000834A53460621204604F0AAFAF3E7002FC1
:105B50003FF4B8AD0399A7EB090292B2494420463D
:105B600004F0E5FAAEE5D0F874329E077FF5AAADF1
:105B7000012103F01EFE204604F0FAFAA2E5D0F857
:105B800074329D077FF59EAD012103F012FEA368DC
:105B9000D3F874321907EED4204604F0CAFA91E51E
:105BA000204604F0D4F98DE5204604F0C7F92046DC
:105BB00004F00BF910B96069FFF78EFBA0680121B2
:105BC00003F0F7FD3AE6204604F0CAF97AE52046EC
:105BD00004F0D1F976E5D3F874329B0603D55D491C
:105BE000606903F0C4FDA368D3F874329F0603D53F
:105BF0005949606903F0BBFD204600F043FC61E5B4
:105C000000212046FFF76EFB5CE50121F9E7204605
:105C100004F08DF9204603F063FD0121A06803F034
:105C2000C8FDA368D3F874329E067FF54BAD4B498F
:105C3000606903F09CFD45E5204600F049FBA06843
:105C4000012103F0B6FD3DE55B2902D102225A7520
:105C500038E5D3F874329D0706D5622907D14FF095
:105C6000FF31204604F025F9A3680022EFE76629FA
:105C7000FAD10121F5E700225A75A268D2F87432F0
:105C800098077FF51FADA1F131031B2B3FF61AAD2D
:105C900001A151F823F000BF155D0000215D000057
:105CA000355D0000095D0000C5560000C5560000C6
:105CB000C5560000C5560000C5560000C556000078
:105CC000C5560000C5560000C5560000C556000068
:105CD000C5560000C55600000B5C0000015C0000CA
:105CE000C75B0000A15B0000C55600000D5D000011
:105CF000C5560000195D0000C5560000C5560000DD
:105D0000C5560000255D000003235375204604F0AE
:105D100015F9D7E403235375204604F008F9D1E4BC
:105D200003235375A068D0F8741201F0010181F0CB
:105D3000010157E603235375A368D3F874329B0718
:105D40007FF5C0AC28E700BF5EC8000092C6000027
:105D500093C20000A5B90000AAB90000A0B90000D4
:105D600010B504468068037D012B1DD14FF0FF3232
:105D70004FF0FF3300F5437003F0DBFC20460821B1
:105D800000F068FA206803F0ECFC18B1084960697B
:105D900003F0EDFC2046FFF75FFCA06800F54370C0
:105DA00003F020FD002010BD6FF08500FBE700BF71
:105DB000DEC00000F8B504468068154600F51E7088
:105DC000002935D04FF4804103F095FCA368DD64D1
:105DD0006068036800219B689847002844D12046EA
:105DE000FFF7BEFF00283FD1204E214FA06800F5ED
:105DF0002F704FF0FF324FF0FF33032102F030FDE0
:105E00000546A0684FF0FF324FF0FF3300F54370B6
:105E10009DB103F08EFC20462B46164A012104F06A
:105E20003FF9A068BDE8F84000F5437003F0DABC24
:105E30006FF4804103F06EFCC8E703F07AFC324651
:105E40000221204603F077FC20463A46294603F01B
:105E500072FC606803685B6903B19847A06800F54D
:105E6000437003F0BFFCC1E7F8BD00BF89520000DA
:105E7000A556000098C6000010B50B49044603F073
:105E800005FD2046094903F001FD2046084903F0BD
:105E9000FDFC2046074903F0F9FC2046064A002194
:105EA00000F00EFB002010BDAFC60000EDC60000E4
:105EB0004CC70000A0C700003AC80000F8B517465C
:105EC0001E460A462949044603F0E0FC3EB33A78F0
:105ED0002749204603F0DAFC01256A0703D125494A
:105EE000204603F0D3FCAE421ED97A5D20492046FD
:105EF00003F0CCFC0135102DEFD11F49204603F0F3
:105F0000C5FCB6B91B49204603F0C0FC0125AE42D2
:105F10002B4610D81749204603F0B8FC15E0174966
:105F2000204603F0B3FC01251449204603F0AEFCE3
:105F3000E0E700252B46FA5C1149A2F120035F2B14
:105F400028BF2E22204603F0A1FC0135102D06D0DB
:105F50006B07DCD10749204603F098FCD7E72046C1
:105F60000849BDE8F84003F091BC00BF50C80000EC
:105F700057C800005FC8000061C800005DC800008D
:105F800083C8000063C800002DE9F0430446806820
:105F90008846D0F8201389B015461F46002960D1E5
:105FA0004FF44A7205F03CFCE06804F0C7FAA068C0
:105FB00000F5437005F064F84FF42F794FF41F7625
:105FC000A068304405F01AFBA06800228319012163
:105FD0004844103605F0E9FAB6F52F7F09F11409A7
:105FE000EED1A36900261E60A068022100F51E7094
:105FF00003F081FBA36850225A87A36818221A87EE
:106000002168204603F06CFCA368174A66F38205FA
:10601000C3F874526068036841461D682346A84768
:106020000546D0B9A36801221A75D4E909010022F6
:106030000023CDE906230E230393109B0495CDE99D
:1060400001730094094B4FF4006201F0F7FEA3685E
:10605000C3F82003216A01F02FFE284609B0BDE8ED
:10606000F0836FF07705F8E789970000B55D0000D1
:1060700010B5044613460A460146064800F080FF64
:1060800023691B7923B12046BDE8104003F063BCAF
:1060900010BD00BF6F99000038B50B46154648B9D2
:1060A0001449154A521AB3EB920F05D251F82350F6
:1060B000284638BD84680CB90025F9E70F4A944298
:1060C0000AD30F4A944207D21846226829469047BD
:1060D0002B68002BECD1EFE70A4A944202D30A4A1C
:1060E000944205D3246814225343E518E358F0E79B
:1060F0000133F8E75CB9000084B9000098B90000EA
:1061000098B9000084B9000098B90000F7B51646A8
:10611000027800232D2A0446019305D16FF0150360
:106120003360002003B0F0BD05F08AFB0B4F05463D
:10613000C3510A46204601A902F020FEEB59222B4A
:1061400002D16FF02103EBE7002BE7D1019BA342C3
:10615000E4D01B78002BE5D0E0E700BF0C00000086
:106160008368D3F874329B0603D50249406903F073
:106170000EBE7047B0B90000014903F008BE00BF71
:10618000DFC000000A1E0DDC0ED042238168D1F86A
:106190007412890608D5002A04494069B8BF5242E2
:1061A00003F0F5BD4123F1E7704700BF7FC8000051
:1061B0000A1E0DDC0ED044238168D1F874128906C2
:1061C00008D5002A04494069B8BF524203F0DFBD38
:1061D0004323F1E7704700BF7FC800002DE9F04777
:1061E0008568DFF86890044605F15600FEF754FB19
:1061F000002395F83C7086B29846A268558FED1B37
:10620000B54209DB002E1FDD563360691049BDE839
:10621000F0471A4403F0BBBD1D442A44563392F89C
:1062200056A082F85680A26860691A44494603F075
:10623000AEFDA3682B4483F856A0A3685B8FDB1BDD
:10624000F61A00272B46D8E7BDE8F08762BF0000AA
:1062500093C2000008290A4617D8836893F83E10B5
:10626000914212D083F83E208368082AD3F8743212
:1062700005D0990609D50549406903F088BD9B06FC
:1062800003D50349406903F082BD704786C800000A
:10629000B5B9000038B50D4609780446FFF7DAFFB6
:1062A0006A78072A11D8A36893F83F1091420CD05E
:1062B00083F83F20A368D3F874329B0605D5606944
:1062C0000249BDE8384003F062BD38BD8FC8000008
:1062D000F8B58368B3F850200446002A55D0B3F8C7
:1062E0005210002951D0553103F156050B44184680
:1062F000A84206D3014611F80169202E3CD0A842DD
:106300003CD286B29DB2AB1B9BB2591C471CD21A21
:106310000144384605F06AFAA268B2F85030711BA1
:1063200013FA81F3A2F85030A368B3F85020134455
:10633000002283F8562009B2204603F091FDA3689D
:10634000D3F874329A0603D51049606903F01FFD33
:106350003B460F4A0821204603F0A2FE2046FFF7E5
:10636000FFFEA368D3F874329B060ED56069094915
:10637000BDE8F84003F00BBD0846B9E7014611F847
:106380000169202EBDD00846B9E7F8BDBAB90000B2
:1063900093C20000BEB900002DE9F04104460D464D
:1063A00017460AB1FFF7DCFEA368B3F85220D3F812
:1063B0007412563213444A0721D51846FEF76CFA78
:1063C000DFF848800646A6B9A368B3F85020A3F8C2
:1063D0005220A06803F0E8FC20B107B115B1606954
:1063E000FFF7CAFE6942204609B2BDE8F04103F05A
:1063F00037BD6069414603F0CAFC013EE3E7044A49
:106400000821204603F04CFEDEE700BF52CF00001B
:1064100093C2000013B583688DF80710D3F8742277
:106420000446D00725D5B3F85210B3F850208A425D
:106430001FD0481CA3F852000B449DF8072083F896
:106440005620A368D3F87412890710D5D3F8743294
:1064500060690B4913F0040F18BF2A2203F097FC60
:10646000204603F0B2FC10B16069FFF785FE02B070
:1064700010BD01220DF10701204603F01EFEF6E7D4
:1064800083C8000010B504468368094A022103F05E
:1064900007FEA368D3F874329B0707D52046FFF7A1
:1064A0009DFE2046BDE8104003F0B5BC10BD00BF06
:1064B00093C20000014903F06EBE00BFDFC00000C0
:1064C0002DE9F04F0E46002189B0044617460D46CF
:1064D00003AA304601F10108FFF7DEFDB0B995B11E
:1064E00027B13A460821204603F0DAFD1E4FDFF8B7
:1064F0007C90DFF87CA0002103AA304601F101085E
:10650000FFF7CAFD60B909B0BDE8F08F006810B1AF
:10651000FEF7C2F980B2854238BF05464146D7E74B
:1065200003688BB11A787AB1D0F804B04A46CDE945
:10653000005308213B46204603F0B2FDBBF1000F9B
:1065400004D16069FFF7B6FF4146D5E752462046C1
:106550003B46082103F0A4FD6A1D92B2594620462D
:1065600003F026FEF0E700BFB2C8000098C80000A4
:106570009FC80000F7B50F6805460E46A7B138461C
:10658000FEF78AF984B2094B00932846084A3B4635
:10659000082103F085FDE21C716892B2284603B021
:1065A000BDE8F04003F004BE3C46ECE7AEC8000096
:1065B00093C6000010B507490446FEF75BF938B1F1
:1065C00005492046FEF756F9B0FA80F0400910BDA3
:1065D0000120FCE7A4C80000A7C8000010B583682C
:1065E000D3F874329B06044603D50649406903F08C
:1065F00056FEA36850225A87A36818221A870020E3
:1066000010BD00BFC2B9000008B5836902491A680D
:1066100003F03CF9002008BDB5C800002DE9F341A6
:106620000D490E4C0E4EDFF83C80054603F02EF966
:106630000022B44202F1010703D3002002B0BDE8FA
:10664000F081236A0093A36892B24146284603F082
:106650001DF92C343A46ECE7C5C8000030B90000FB
:106660005CB90000DDC8000008B5024903F038F944
:10667000002008BDE0C0000073B50E4E04460025A2
:10668000A268E0680DF1060302F5AB72012103F088
:10669000B6FEBDF80600A36840B12A4603F5AB7309
:1066A0003146204603F0F2F80135E9E783F8560158
:1066B00002B070BDEEC8000010B5044603F03DF90D
:1066C00003490246204603F0E1F8002010BD00BF58
:1066D0000DC40000022907B50BD15368009312685E
:1066E0000B4B0C4903F0EEF86FF0150003B05DF8AA
:1066F00004FB8368084AD3F87432084913F0020F88
:10670000074B18BF1A4603F0C1F80020EEE700BFA0
:10671000FCC8000011C90000F8C800001AC9000038
:1067200057C2000010B58368D3F874329A06044645
:1067300003D50749406903F0B2FDA368D3F874326A
:106740009B0603D50349606903F0A9FD002010BD35
:10675000C9B90000CEB90000F0B5012985B00446E2
:106760000AD05368009312685D4B5E4903F0AAF8A3
:106770006FF0150005B0F0BD8368D3F87432990648
:1067800003D55949406903F08AFD6FF0F9012046AD
:10679000FFF7F8FCFA212046FFF70AFDA068002564
:1067A0004FF48072294600F5AB708DF80B5005F060
:1067B00037F84E49606903F072FD606903F0CBF869
:1067C0004FF47A766068036801221F690DF10B01AE
:1067D00003ABB847039BEBB9013E4FF47A70B6B2F6
:1067E00001F026F8002EEDD1A368D3F874329B0691
:1067F00003D53F49606903F052FDA3683D4950222B
:106800005A87A368182220461A8703F04DF86FF0C4
:106810000700AFE79DF80B20A3681B2A53D093F81D
:1068200056111B29CED1522A4DD15A19002382F874
:106830005631A66896F857215B2A2BD106F25710DD
:10684000022510F8011F2A463B2905F10105ADB2CA
:1068500023D1FF2AC8D002F5AB7216FA82F10022CA
:1068600011F8010F18BB86F85601FA2AA16828BF53
:10687000FA224A87FA2BA26828BFFA231387A36853
:10688000D3F874329A0603D51949606903F007FDFD
:1068900000206FE786F85631A6E703EB8303303913
:1068A00001EB4301B5F5807F8BB2CAD19CE701357E
:1068B00002EB8202ADB2303800EB4200B5F5807FCA
:1068C00082B2CDD190E72B440135ADB2092D83F8CA
:1068D00056217FF677AFA368002283F8562183E71D
:1068E000FCC8000011C90000D4B9000065C900004F
:1068F000D8B900002BC900002DE9F04F074689B038
:106900001546894621B1104603F01EFE00285BD1D2
:10691000032455E05C463CE029460AF5AB7004F0E0
:10692000EAFE0646002854D0FDF7B6FF82B2601C8E
:1069300001323146304404F059FF22465946304670
:1069400004F046FF4FF020033355BAF854300133BA
:106950001C44AAF8544008F10108002401994B1C7A
:1069600003AA48460193FFF797FB0646E8B1316852
:106970000022284603F08CFF0028EFD1D6F800B0A3
:10698000D7F808A0BBF1000FC4D05846FDF784FF2C
:1069900084B2BAF854302344FF2BBDDD0E4A2B4697
:1069A0000321384603F07CFB0124B8F1000F07D027
:1069B000B8682A4600F1540100F5AB7003F0FBF80B
:1069C000204609B0BDE8F08F4FF000084146022490
:1069D000C5E70224E9E700BF2DCE000038B50C461C
:1069E000154603F0F6FD034B43F8305003EBC003AC
:1069F0005C6038BD4801002030BFFFF7FDBF00BF1D
:106A00002DE9F0410B4EDFF8308006EB0807CC1B78
:106A1000054632460949204604F0DAFEA0194246EE
:106A20000021083C04F0FCFEC5F8A84007F108006E
:106A3000BDE8F081000000000800000098B90000E7
:106A4000074A936893F90E10002907DB52699342B5
:106A50001FBF044A536843F080535360704700BF20
:106A6000F80A002000ED00E0134B9A6A12F0007F54
:106A70009A6A14BF1E201D2012F0807F9A6A18BFE8
:106A80001F2012F4002F9A6A18BF212012F4802FC1
:106A90009A6A18BF222012F4003F9A6A18BF232076
:106AA00012F4803F9A6A6FEA02426FEA12429A62D7
:106AB00018BF2420704700BF00ED00E010B5164B52
:106AC0009A6A9C6A12F4805F14BF1722162214F48B
:106AD000006F9C6A18BF1822A40509D59A6B9A6AA0
:106AE000120404D518B19A6A22F400429A6219225B
:106AF000094B986A10F4806F986A18BF1A2210F434
:106B0000807F986A40F47F4098624FF000030B70DA
:106B10000CBF10461B2010BD00ED00E010B5154B5A
:106B20000246986A9C6A10F0100F14BF11201020C2
:106B300014F0080F9C6A18BF1220A40709D5586BDF
:106B4000986A000604D51AB19A6A22F080029A6205
:106B50001320084B9A6A12F0010F9A6A18BF14208A
:106B6000D20658BF9A6A9A6A42F0FF029A620023DC
:106B70000B7010BD00ED00E0F0B5474B5B688BB0CB
:106B80000446C3F30803002585F31188BFF36F8F14
:106B900002F07F40B0F17F4F11D102F00C000828C5
:106BA0000DD010074CBF0C4601250022033B8DF889
:106BB0000720032B05D8DFE803F02462665F2C462C
:106BC000F3E700239DF80720CAB902AE04F12007BD
:106BD00020686168324603C20834BC421646F7D1C9
:106BE000099A002D53D0C2F3080121B96FEA52224D
:106BF0006FEA4222099202A9184603F0EBFC0BB09F
:106C0000F0BD254BDA6A9107DBD4DA6A002AD8DBBB
:106C1000DA6A5200D5D55A69A16942F480725A6184
:106C2000BFF34F8FBFF36F8F5A6931F8021C22F404
:106C300080725A61BFF34F8FBFF36F8F4DF60272B0
:106C4000914209D09A6AD2B242B10DF107010120F6
:106C5000FFF764FF0346B5E72368B3E79A6A12F4C7
:106C60007F4F05D00DF107010120FFF727FFF1E766
:106C70009B6AB3F5803FA4D3FFF7F6FEEAE70DF178
:106C800007010020E4E70DF107010020EDE722F401
:106C9000FF7222F00102ADE700ED00E0024A536905
:106CA00043F010035361704700ED00E0EFF30880FC
:106CB000EFF3098101B57246FFF75EFF01BD00BF2A
:106CC00000200E490870102080F311880C484FF006
:106CD000AA014FF4006204F0BBF909484FF40061C7
:106CE000401880F30988EFF314800221084380F3F1
:106CF0001488BFF36F8F00F0B7F80000570B002027
:106D000060130020084B9B6883420BD1EFF305838F
:106D100043B1064B5A6842F080525A605A6A22F4D4
:106D200000425A6204F0A8BAF80A002000ED00E020
:106D30000A4A93686FF00A01C3F8B0100849C3F813
:106D4000AC004B6843F080534B60002383F3118801
:106D5000BFF36F8F9368D3F8B0007047F80A002034
:106D600000ED00E0EFF31183102383F31288BFF3EB
:106D70006F8F0A4A53699360094A4FF0006151606E
:106D8000084AD3F8A81011600021D3F8AC20C3F84A
:106D9000AC1082F31188BFF36F8F7047F80A0020A0
:106DA00000ED00E03C0A00200B498A684FF03000FB
:106DB0001044EFF3098C80E8F01F74467046FFF72B
:106DC000D1FFA64604498A6802F1300090E8F01F1E
:106DD0008CF3098870470000F80A00201EF0040FA9
:106DE0000CBFEFF30880EFF30980816911F8021CF2
:106DF0000229FFD001B503F0F3FB01BD0028ACBFB1
:106E000000F16040064B4FEA0111ACBF00F5614054
:106E100000F00F00C9B2B4BF195480F800137047D6
:106E200014ED00E040B2002807DB044A41090123C9
:106E300000F01F00834042F82130704700E100E07D
:106E400040B200280CDB4309064900F01F00203344
:106E50000122824041F82320BFF34F8FBFF36F8F91
:106E6000704700BF00E100E008B5084B084A23F076
:106E70007F039360BFF34F8FBFF36F8F00F098FDD8
:106E800001F094FB00F04AF800F0D6FD004000004D
:106E900000ED00E042F8203C009B42F81C3C0A490F
:106EA000019B42F8183C029B42F8143C21F001017E
:106EB0004FF0807342F8043C42F8081C0023203A4B
:106EC0000265C0F8AC307047414A000000B50C4B79
:106ED00098600C4B0E46D0F8A810196015462C4649
:106EE00086F309884FF00000074B984720464FF083
:106EF00000014FF000024FF00003044C204700BF98
:106F0000F80A00203C0A002007A60000414A0000C1
:106F1000014B10221A61704700ED00E00448002385
:106F20001021C2180133202B82F80013F9D17047C9
:106F300000E100E008B5EFF30583064A103B02EBE1
:106F4000C30152F8330049688847BDE80840FFF79D
:106F500077BD00BF4801002008B5024B1B68984769
:106F6000002008BD400A0020034B044A18609378B3
:106F700043F0020393707047400A00204400002051
:106F8000F0B587B007460E46144600211022684629
:106F90001D4604F045FC02238DF802302A46054BBD
:106FA000019321466846CDE9047601F04DFF07B014
:106FB000F0BD00BF2FA6000008B50649064821F025
:106FC0000701C1F1005202F5004202F0C6F90020AB
:106FD00008BD00BF67260020440A002008B500F065
:106FE000B7F80A4941610A490122C0E900220A6052
:106FF00008490A60084A00231360084A03611360C5
:10700000C0E90233064A136008BD00BFE0C00000BB
:10701000700000206C000020580A0020540A002054
:10702000500A00202DE9F04107460E46154600F0B3
:107030008FF8C36804461BB943691A78002A41D106
:107040000023E3606368BB4256F8232008DB324B21
:107050006361204600F062F84FF0FF30BDE8F08138
:10706000511C616192F80080B8F12D0FEFD1911C95
:1070700061615178A1602D2904D192786AB90133F8
:107080006360E4E749B9244B63614146284604F054
:10709000F7FA0028DDD0C4F80880D4F80880284624
:1070A000414604F0EDFAB8F13A0F636900D070B9C7
:1070B0001B7813B9636801336360204600F02EF833
:1070C0003F20CBE75A1C42611B788360E5E742789A
:1070D0003A2A0BD0002222611B7813B9636801336E
:1070E0006360204600F01AF8A068B7E71878626875
:1070F000094928B901329742626004DD56F822300E
:10710000C4E90431EAE761612D783A2D2046D5D1F2
:1071100000F004F82846A1E7E0C00000074B026831
:107120001A60074B42681A60064B82681A60064B69
:10713000C2681A60054B02691A607047700000202F
:107140006C000020580A0020540A0020500A002039
:10715000004870475400002008B503F09CFB00284D
:1071600009DC064B064A002053F83010914204D047
:1071700001302028F8D16FF0150008BD4C01002027
:10718000FFA5000010B500F1805404F5C654A4001A
:1071900024680C60044901EBC0046468146051F871
:1071A00030201A6010BD00BF4801002038B5431CD4
:1071B000054614D0FFF744FE05F1805303F5C6538E
:1071C0009B00002407491C6022462846FFF706FC66
:1071D00028462246214603F00EFA204638BD6FF0BD
:1071E0001500FBE7FFA5000010B5EFF31184102395
:1071F00083F31288BFF36F8F0D4BC1F307501A68EA
:1072000001F00F03C01A0123834022EA03026FF04A
:10721000404303EB11739B0003F1804303F58E237E
:107220001A6084F31188BFF36F8F002010BD00BF78
:107230000070044010B5EFF31180102383F312881F
:10724000BFF36F8F0C4B01F00F021C68C1F30753A3
:107250009B1A01229A406FF0404303EB11739B008D
:1072600003F1804303F58E2322431A6080F31188D3
:10727000BFF36F8F002010BD00700440054B21F05C
:10728000FF01994203BF044B136000206FF015000B
:10729000704700BF0000F011006CDC0230B51A4BE3
:1072A0001A4C93F826201A4954F822200A60194AE9
:1072B000194D4AF20350A2F8FE00012085F8800023
:1072C00083F83200002083F8360093F83C00C007B2
:1072D000FBD5002083F8A0000B4B93F8A00010F022
:1072E0001000FAD1012583F831500C4D1D6283F84E
:1072F000260093F8263054F823300B604FF42543D2
:10730000A2F8FE3030BD00BF00E0014040BE0000EA
:107310003401002000E3014000E4014000010010BE
:1073200008B5074803F066FE38B10648FFF71CFEB3
:107330000448FDF767FB002008BD6FF01200FBE773
:10734000D8B80000497300000A2838B5074D044634
:1073500004D1AB680D215B6828469847AB680348A9
:107360005B68E1B29847204638BD00BFD8B800003E
:10737000F0B51E4D00224023EA70EB70914204DC10
:1073800000208023E870EB70F0BD50F82240C4F379
:10739000004363F31744E30600EB820618D5B77881
:1073A000C7F3430303F180537F0903F5813303EBF4
:1073B00007139B001F6827F480371F60B3785B08B2
:1073C00003F1805303F581339B0024F010071F6005
:1073D000B678C6F3430303F1805303F5813376098E
:1073E00003EB06139B0001321C60C7E7000D04404D
:1073F00073B54FF4234306691C4A009305460346C0
:1074000000214FF0FF3003F062FA041E2ADB4FF434
:107410002443F460164A009300212B464FF0FF30BE
:1074200003F055FA041E13DB4FF426433461114A6E
:10743000009300212B464FF0FF3003F048FA041E62
:107440004FF000030CDA00931A461946FFF7AEFE20
:10745000002300931A4619462046FFF7A7FE01E0D5
:1074600074611C46204602B070BD00BFFBAE000038
:10747000E9AE0000D7AE000070B5294B4C68026938
:107480009C424AD1EFF31184102383F31288BFF397
:107490006F8F43681D68AB7803F0CF03AB70436810
:1074A0001D682B7903F007032B7143681D682B8B34
:1074B00023F001031B041B0C2B8343681D68AB786E
:1074C00003F0FC03AB7043681D682B7803F00403E2
:1074D0002B70436806691D68EB7903F0F30343F0F2
:1074E0005003EB713368DD00B368B3FBF5F3456817
:1074F000013B2D68DBB26B7043681868837843F0FA
:10750000300303F03303837003C982E8030084F37C
:107510001188BFF36F8F002070BD6FF08500FBE70F
:107520000001030010B54FF0E0230F499C691A6970
:1075300008689B690D4902F4803234B993B9034657
:107540004AB90A681044C01A10BD002B08BF034690
:107550000AB9A342F5D90A6802440A604FF0E02252
:107560001269EEE70446F3E7F40A0020E80A002077
:107570000C4B102283F823200B4B42F210721B6835
:1075800093FBF2F3094A1360094A002010604FF0A0
:10759000E022013B53619061136943F007031361DB
:1075A000704700BF00ED00E034010020F40A002025
:1075B000E80A002010B5FFF7B5FF104B104A186815
:1075C00011680844106000221A600E4B1A68801A75
:1075D0000D4942F210740A6892FBF4F2B0FBF2F02B
:1075E0001A68096891FBF4F100FB01221A6001F0AE
:1075F000B7F8BDE81040FFF723BA00BFE80A002043
:10760000F00A0020EC0A0020340100202DE9F047A8
:10761000664E002958D0421C0AD14FF0E02213696F
:1076200023F0010313614FF07F433360BDE8F0871F
:1076300035685F4C01285EDD42F21072236893FBCF
:10764000F2F36FF07F4999FBF3F3013B83424ADB8E
:1076500000F1FF39EFF31187102383F31288BFF392
:107660006F8FFFF75FFF53494FF0E0230022D3F8FD
:1076700018E00B681844504B08601A604F4BD3F861
:107680000080B0EB080A42F2107C3AD5236893FBE5
:10769000FCF3B3F5804F31D3206890FBFCF0000978
:1076A0004FF0E023306001389A69586100209861FA
:1076B0000B6873449B1A964538BF5B190B6087F3C0
:1076C0001188BFF36F8FB1E7431C3568B1D1384BD8
:1076D00042F210721B6893FBF2F36FF07F4090FB55
:1076E000F3F00138A5E7236893FBF2F399FBF3F974
:1076F00009F1FF39AEE74FF00009ABE74FF48060C6
:10770000CEE7226892FBFCF209FB02F2236893FBAE
:10771000FCF3013B53441344226892FBFCF2B3FB9D
:10772000F2F3A8EB0000226892FBFCF203FB0200DC
:10773000226892FBFCF2B2F5804F31D3236893FBB1
:10774000FCF31B0983420BD342F21072236893FBB4
:10775000F2F3B3F5804F26D3206890FBF2F00009D6
:1077600042F2107C236893FBFCF36FF07F4898FB98
:10777000F3F3013B226892FBFCF282FB032382427B
:1077800073F100038CDA236893FBFCF398FBF3F8A6
:1077900008F1FF38206890FBFCF008FB00F07FE761
:1077A0004FF48063CEE74FF48060D9E7F40A0020FD
:1077B00034010020F00A0020E80A0020EC0A002032
:1077C00038B5EFF31185102383F31288BFF36F8F61
:1077D0000A4B1C680A4B1B68E41AFFF7A3FE85F3EB
:1077E0001188BFF36F8F074B20441B6842F2107261
:1077F00093FBF2F3B0FBF3F038BD00BFF00A0020BA
:10780000EC0A00203401002038B5EFF31185102375
:1078100083F31288BFF36F8F044B1C68FFF782FE5F
:1078200085F31188BFF36F8F204438BDF00A002024
:1078300038B50446C0B1FFF7E7FF05460B4B0C48CF
:107840001B68DA17A3FB043104FB02111818094A5C
:107850004FF0000341F10001FCF7A2FE0446FFF7E0
:10786000D3FF431BA342FAD338BD00BF340100202D
:107870003F420F0040420F00034A044B02609B1A34
:107880001420B3FBF0F070479CB80000ECB8000087
:1078900038B5EFF31185102383F31288BFF36F8F90
:1078A000064B9C6803F0B9FB85F31188BFF36F8F1B
:1078B0002046BDE83840FFF725BA00BFF80A00208F
:1078C00038B5094B53F82040013053F82050A542F9
:1078D00000D838BD636823B1204603F0A1FB08340B
:1078E000F5E723689847FAE7F8BE0000F0B52B4BA0
:1078F0002B4C2C4D012287B003201A70FFF7E0FFBC
:1079000001F02EF803F0A8FB0420FFF7D9FF26466C
:10791000AE4204F12C0411D300F08CFC204C224F19
:107920000A26AC4226D300F099FCFDF72DF81F4A39
:10793000137B23F00103137307B0F0BD54F8083C28
:10794000059354F80C3C049354F8103C039354F8FA
:10795000143C029354F8183C019354F81C3C0093D7
:1079600054E9092354E90B0100F0FEF954F82C3CCA
:107970005E65CCE7A26A531C09D022EAE27282FB60
:10798000062352EA0301206803D103F088FB2C345C
:10799000C7E73946183000F069FEF8E7570B0020BA
:1079A000ECB80000ECB80000FFB100009804002023
:1079B00008B50348034A0021121A03F049FB08BD29
:1079C000500200205C0B002070B5154E154D164975
:1079D00086B0B82303FB0066144B059301220F23E6
:1079E000CDE903320023CDE90133142303FB005515
:1079F000044601EB00210E4B00954FF48072304697
:107A000000F0B2F9737B2C7423F004037373094BF9
:107A1000EE60013403EBC4236B6006B070BD00BFA1
:107A2000E0030020F80A0020601B0020BDCE00000B
:107A30005BB0000060130020BFB50020FFF740FFDF
:107A4000284B83F30888284D284E6B69284F43F450
:107A500000736B610024F02385F82230EC772C76DC
:107A60006C76AC766B6A43F4E0236B62FFF716F931
:107A7000FFF74EFA4FF0FF33AB62EB621D4BB36082
:107A800040F201129A81C3E92644C3F8A44003F0EE
:107A9000B0FA0120FFF714FF0220174DFFF710FF87
:107AA00000F0FCFB154B756105930123144900940C
:107AB000CDE903434FF480623B46CDE901442846BB
:107AC00000F052F96A7B064622F0040228466A73E7
:107AD00003F03BFB2046FFF777FF3A463146284646
:107AE000FFF7F4F9601B002000ED00E0F80A002029
:107AF000ED7800005005002098040020C2CE000060
:107B0000601C00202DE9F341044617461E46EFF3A2
:107B10001188102383F31288BFF36F8FC368334A31
:107B20007BB180689168884219D057EA060318D162
:107B300088F31188BFF36F8F6FF00F0002B0BDE8BC
:107B4000F081916891F90E1021610133E36093682F
:107B5000A36088F31188BFF36F8F0020EEE72169DF
:107B6000F2E791F90E1090F90E309942A8BF19462C
:107B70006FF07E029142B8BF11468B422DDD03F0BB
:107B800077FA0546CDE9007619482246414600F0CD
:107B90009DFA0028E1D0EFF31186102383F31288B9
:107BA000BFF36F8FA068D0B1236821699C420AD0CF
:107BB0004BB193F90E309942A8BF19466FF07E037E
:107BC0009942B8BF194603F053FA40B1084831460C
:107BD00000F0ECFA6FF00A00B0E70025D2E7002DC4
:107BE000F4D186F31188BFF36F8FF3E7F80A002012
:107BF000580B002038B5836804466BB3194A926865
:107C000093422CD1C368012B03D9013BC3600020F0
:107C100038BDEFF31185102383F31288BFF36F8F04
:107C20000169806803F024FA204603F002FBA0609B
:107C300060B190F90E2022610022C0F8B02003F05C
:107C400084FA0948294600F0B1FAE0E7E06085F3DC
:107C50001188BFF36F8FDAE76FF01500D8E74FF0A8
:107C6000FF30D5E7F80A0020580B002038B504464D
:107C7000EFF31185102383F31288BFF36F8F03F0A6
:107C8000D8FA50B10022C0F8B02003F05EFA2946BD
:107C90000848BDE8384000F089BAD4E902329A4277
:107CA00018BF0133A360022104F1100003F08CFC23
:107CB000EDE700BF580B002010B5044608B9054B8E
:107CC0009C681F2204F1780003F0F9FC002084F87E
:107CD000970010BDF80A00202DE9F74F0C46D1B3EC
:107CE000CAB3477BDFF87480561E08466FB34FF067
:107CF00000094D464FF0010A0AFA09FB17EA0B0F7B
:107D00001DD0D8F80410721B8A4228BF0A46D8F842
:107D10000010019203F05CFD019A37EA0B0715444D
:107D200004EB050011D0A6EB050BBBF1010F28BF3A
:107D30004FF0010B0A495A4603F04AFD5D4409F130
:107D4000010908F108086019D6E7002303702046EE
:107D500003B0BDE8F08F0348FAE700BF10BF000092
:107D6000C7CE0000E0C000002DE9F04F85B0984676
:107D700000F15803C0E91633129B03730732042342
:107D80000F46002622F0070A4373119B83730446B3
:107D900001EB0A055246C0E906668660C673AA2151
:107DA0003846DDF838B0DDF84C9003F039FD29464F
:107DB0002046FEF725FE0730109B20F00700C4F890
:107DC000A000C4E9267A02930F9B2D1ACDE900B3D7
:107DD0002A46434639462046FFF75CF80F9BE36688
:107DE000109B6665C4E9198B2367EFF3118310229A
:107DF00082F31288BFF36F8F0F4F3A6A62673C625B
:107E000083F31188BFF36F8FB9F1000F11D01F22D8
:107E1000494604F1780003F052FC84F89760BB688F
:107E20000BB1D3F8A430C4F8A430284605B0BDE89F
:107E3000F08F84F87890F2E7F80A0020F0B587B068
:107E400000250595109D04950F9D03950E9D0295A7
:107E5000DDE912760D9D01950C9D00950446FFF716
:107E600083FFB6F1FF3F08BFB7F1FF3F05D056EAE9
:107E7000070305D1204600F0ABF9204607B0F0BD5E
:107E800003493A46334604F1180000F0EFFBF4E7EB
:107E9000FFB1000038B50D4D2B4653F8184F9C42EA
:107EA00000D004B9EC68AB6838B95A7BD20604D16B
:107EB000A26912B9DA897F2A05D89C4202D02046ED
:107EC00000F0DAFA23466B6138BD00BFF80A0020E3
:107ED00008B590F90D20437B002A014604DA03F02F
:107EE0007F03437303F0EEF8044B9868431A58423B
:107EF0005841BDE80840FFF7CDBF00BFF80A002099
:107F000070B490F90D30427B002B29DBD30627D1CA
:107F100083692BBB134962F07F0242730A4652F811
:107F2000184F944218BF2346CC6923B9C0E90024F6
:107F30002060C8610CE090F90E5093F90E60B542D4
:107F40000AD0AE4208DD5A68C0E9003210605860BD
:107F500070BC0020FFF79EBF9C42E7D01B68E4E79F
:107F600070BC7047F80A00202DE9F041002A427BDE
:107F70000E460CBF10210821114204460FD141EAE0
:107F80000203D20918D1437308291BD00120FFF73F
:107F900081FFBFF35F8F637B23F0600363732C4B20
:107FA0009B68A3424ED1EFF30583002B4AD13046A4
:107FB000BDE8F041FEF7BCBE03F07F03437303F05E
:107FC00081F8E1E7A36813B1204603F083F804F1D8
:107FD000180003F096F9A56D04F15807AF4211D0CF
:107FE0004FF0000875B1284603F074F805F1180049
:107FF00003F087F9C5F8B0802846FFF781FFA56D2B
:10800000AF42EFD1124DAB689C4206D00120FFF782
:1080100041FF204600F088FABBE7EFF30583002B11
:10802000F4D00120FFF736FF204600F07DFA094B1F
:10803000AB6040F201129A810022C3E92622C3F804
:10804000A420A6E786F31188BFF36F8FBDE8F08107
:10805000F80A00205005002070B590F90D20437BF0
:10806000002A014604DA03F07F03437303F02AF881
:108070004B7B154A63F07F0310464B7350F8183F53
:10808000D469834208BF002323B9C1E900042160F9
:10809000D1610CE091F90E5093F90E60B5420ED00B
:1080A000AE420CDD5868C1E900300160596090684B
:1080B000431A5842BDE870405841FFF7EBBE9C425E
:1080C000E3D01B68E0E700BFF80A0020F8B5124BC8
:1080D0000C461146114A98681060DDE90676EFF308
:1080E0001182102282F31288BFF36F8F9D68284699
:1080F00002F0FAFFB6F1FF3F08BFB7F1FF3F06D02D
:1081000007493A46334605F1180000F0AFFA204619
:10811000BDE8F840FEF70CBEF80A00201C0B00205A
:10812000FFB10000F8B50446EFF31186102383F386
:108130001288BFF36F8F437BDA0649B219D1856984
:10814000BDB903F07F03437302F0BCFF437B164AC3
:10815000817363F07F034373134653F8180F9842FB
:1081600018BF0546D0695DB9C4E900300460D46128
:1081700011E0A173002086F31188BFF36F8FF8BD63
:1081800095F90E70B9420BD08F4209DD6B68C4E9D6
:1081900000531C606C600120FFF77CFE0120EAE7C1
:1081A000A842E1D02D68DEE7F80A002049B9EFF3D4
:1081B000058030B9054B5A699B689A4201D0FEF799
:1081C000B7BD81F31188BFF36F8F7047F80A0020A5
:1081D00010B5EFF31184102282F31288BFF36F8F72
:1081E000427B510704D484F31188BFF36F8F10BD15
:1081F00022F004024273FFF783FE21460248BDE8E5
:108200001040FFF7D3BF00BF580B0020034648B90A
:10821000EFF3058232B9064A51699268914201D062
:10822000FEF786BD83F31188BFF36F8F704700BFE1
:10823000F80A0020EFF31181102383F31288BFF3B3
:108240006F8F054B9A68D37B013BD37381F3118801
:10825000BFF36F8F704700BFF80A002038B5EFF307
:108260001185102484F31288BFF36F8F0A4B9A682C
:10827000D37B0133D3730020FFF70CFE85F3118805
:10828000BFF36F8FEFF3118084F31288BFF36F8F0A
:10829000BDE83840FFF7BABFF80A0020024B03F1EF
:1082A0001802C3E906227047F80A0020F8B5EFF378
:1082B0001185102383F31288BFF36F8F19498868E3
:1082C000437B03F07F03437302F0FCFE8B685A7B11
:1082D000084662F07F025A7350F8182FCC69824228
:1082E00008BF002222B9C3E900042360CB610CE07F
:1082F00093F90E6092F90E70BE420ED0B7420CDDBB
:108300005168C3E900210B6053600120FFF7C2FDF3
:108310002846BDE8F840FEF70BBDA242E3D0126844
:10832000E0E700BFF80A002050EA01032DE9F04120
:1083300005460E4603D1FFF7B9FF00202BE0831C52
:1083400071F1FF3329DB02F0F1FF2C18EFF31188F4
:10835000102383F31288BFF36F8F124F124BB8684C
:108360001860FFF7B5FDB86810492A463346183043
:1083700000F07CF9BA68537B43F010035373404616
:10838000FEF7D6FC02F0D2FF201A63EB03030128AC
:1083900073F10003D1DBBDE8F0816FF00104241A12
:1083A000D4E700BFF80A00201C0B0020FFB100003A
:1083B000B1F1FF3F08BFB0F1FF3F08B506D10A4B4E
:1083C000986802F0D1FE4FF0FF3008BDFFF7ACFF18
:1083D000C11709304FF00A024FF0000341F10001CC
:1083E000FCF7DEF8F1E700BFF80A0020014B9868BF
:1083F000704700BFF80A0020D3B5DDE90667089C86
:10840000CDE90067FFF762FE1CB1034B9B685B6917
:10841000236002B0D0BD00BFF80A0020044BC01A90
:10842000044BC0105843044B01221A54704700BF3C
:1084300008060020ABAAAAAA580B0020C3897F2BEC
:1084400012D80A4B1B6863B1094B90F90E201B68C8
:108450009A4209DB437BDB0606D1064BC31A18BFE1
:10846000012303F0010070470023FAE7240B0020EA
:10847000200B0020E003002070B50E4B0E4C1E7C3C
:1084800006EB460304EBC3040546204602F039FF21
:108490000A4B002228469A55FFF7D0FF48B1084BF7
:1084A00008491A68013A2046D317BDE8704000F029
:1084B000DDB870BDF80A002008060020580B002027
:1084C000240B00201D84000038B5EFF31185102324
:1084D00083F31288BFF36F8F104B114A9C681068AA
:1084E000A04206D1FFF7C8FF85F31188BFF36F8F55
:1084F00038BD00211B7C11600A4AD35C002BF3D0ED
:108500002046FFF79BFF0028EED0637BDB0602D1FD
:108510002046FFF7A1FD2046E4E700BFF80A00204F
:108520001C0B0020580B0020EFF31181102383F364
:108530001288BFF36F8F0A4A136A834207D15B6FB9
:10854000136281F31188BFF36F8F70471346002BBE
:10855000F7D05A6F8242F9D1426F5A67F1E700BFF4
:10856000F80A0020F8B506460F46EFF311831022F3
:1085700082F31288BFF36F8F0B490C6A154624B93A
:1085800083F31188BFF36F8FF8BD83F31188BFF3B6
:108590006F8F39462046B047EFF3118385F3128879
:1085A000BFF36F8F646FEAE7F80A002008B506484A
:1085B000064A0749121A02F04DFDBDE80840054A77
:1085C0000549064802F046BD000000205002002088
:1085D00054CF00000000000054CF00000000002035
:1085E000034B1B680BB9FFF7EBB80020704700BFC7
:1085F000280B002030B570B10B4B5B6898420AD055
:10860000036843B1D3E90421D0E90445121941EBD1
:108610000501C3E90421D0E9003213605A60002348
:10862000C0E9003330BD00BF3801002010B50E4B4B
:108630001C689C4204D1FFF7D3FF6FF0004010BDCF
:10864000FFF7CEFF002CF8D0D4E904321B1A62EBFE
:10865000E072B3F1004F72F10001EEDA002AACBF14
:1086600018460020EBE700BF38010020B3F1FF3FC0
:1086700008BFB2F1FF3FF8B504461D4616465ED06E
:108680008160EFF31187102383F31288BFF36F8F9C
:10869000013275F1FF3324DA2E49D1E900206FF061
:1086A00001039B1A4FF0FF3262EB00009E1B60EB50
:1086B0000500012E70F1000301DA01260020C4E953
:1086C0000460254ED6F800C07568B44508BF4FF069
:1086D000000CBCF1000F0DD1C4E900652C60746082
:1086E0001CE0FFF77DFF013645F10005361845EB2C
:1086F000E070E4E7DCE90420D4E90431934271EB53
:10870000000E1DDAD21ADCF8043060EB0100CCE96F
:108710000420C4E900C31C60CCF804403368B342B1
:1087200009D09C4207D10D4B1C6824B9FFF77EFF8E
:108730002146FEF76BFF87F31188BFF36F8FF8BDFB
:108740009B1A61EB0001AC45C4E90431C4D0DCF8EC
:1087500000C0BEE72006002038010020280B0020C2
:108760002DE9F84FEFF3118C102383F31288BFF338
:108770006F8FDFF8B0A0DFF8B0902C4FC9F8000081
:10878000DAF800000024504508BF00200025D7E992
:108790000021D9F80030E04678B3D0E9046C4FEA04
:1087A000E37EB3427EEB0C0B05DAF61A6CEB0E049B
:1087B000C0E9046421E0B21841EBE671C0E9044568
:1087C000C7E90021FFF716FF88F31188BFF36F8F09
:1087D00083689847EFF31188102383F31288BFF35F
:1087E0006F8FD9F80030DAF800009B1B5045C44663
:1087F000C9F80030CBD1D7E900219A1841EBE373D7
:108800000024C7E90023C9F80040FFF70FFF214605
:10881000FEF7FCFE88F31188BFF36F8FBDE8F84FB9
:10882000FFF752BE38010020280B00202006002050
:1088300010B5EFF31184102383F31288BFF36F8F09
:10884000FFF7CEFE054A0346D2E90001181841EBB6
:10885000E37184F31188BFF36F8F10BD20060020F1
:108860002DE9F74F1D46274B9F68012387F860309D
:1088700087F8613052EA050316460CBF0123002336
:1088800007F16002804602F0D2FD8146EFF3118BC2
:108890004FF0100A8AF31288BFF36F8F97F8604089
:1088A0004CB901465A46404602F062FD8BF31188EE
:1088B000BFF36F8F0BE0002387F8603056EA0503A3
:1088C00009D18BF31188BFF36F8F6FF00A04204634
:1088D00003B0BDE8F08FCDE900650B4A0B4859465F
:1088E000FFF7F4FB0446EFF311858AF31288BFF318
:1088F0006F8F2A464946404602F03AFD85F31188BB
:10890000D6E700BFF80A002040010020590B0020E4
:1089100038B50346EFF31185102282F31288BFF3B6
:108920006F8FC160012181600068834206D185F3A9
:108930001188BFF36F8F0024204638BDD0E9003284
:1089400013605A600023C0E9003302F0E8FD2946B5
:1089500004460248FFF72AFCEEE700BF590B00204F
:10896000014800F039BD00BF02CF00001FB5094A21
:1089700092E8030002AB83E803004FF480620093A7
:10898000054906484FF0FF3300F006F9002005B016
:108990005DF804FB98B90000602000202806002044
:1089A0002DE9F043DFF8348185B005464FF0FF36FE
:1089B0004FF0FF37EFF31189102383F31288BFF3D1
:1089C0006F8FD5F8B8408CB9022105F1D00002F0C4
:1089D00022FE002860D10023CDE90067029305F153
:1089E000C00249463E48FFF707FDE3E7D5F8BC2043
:1089F0002368C5F8B830944208BFC5F8BC30D5F834
:108A0000D03043F00203C5F8D030E36823F004030C
:108A100043F00103E360636889F31188BFF36F8F4C
:108A200020469847EFF31189102383F31288BFF390
:108A30006F8FE368D90623F0010237D4E260E36860
:108A40009A071AD5D8F8000023F00203E360A0B11A
:108A50000268002188B143689C4237D1036869BB32
:108A6000D8F80420C8F80030824201D1C8F8043098
:108A7000002340F8083BFFF7F9F8D5F8D03023F091
:108A80000203C5F8D03089F31188BFF36F8FDB057F
:108A900090D4FFF70BFC8DE705F1C80400220121FB
:108AA000204602F00BFC0028F8D194E723F01103D4
:108AB000E36004F11000FFF7D9F8C0E70B60D8F8C5
:108AC0000430834208BFC8F80410D1E722B113680C
:108AD000014610461A46BDE71346F9E72C0B002065
:108AE000590B0020F8B5C3689A0704460F46C3F334
:108AF00040062CD45B071AD40B680BB983680B6053
:108B0000E368DD0744BFA3683B603D684CBF0226B5
:108B10000126002D3AD01F4B9B68AB420AD0D5F8F6
:108B2000D030D807C3F3800214D46FF012060023AC
:108B30003B6025E002F0ABFAD5F8D0300028F0D148
:108B4000D907C3F3C002F0D552B15B0708D46FF068
:108B50000F06ECE7002AFAD1C3F3C003002BF6D1CD
:108B600000232360D5F8BC3063B9C5E92E442846FC
:108B700002F05CFDE36843F00403E3603B68A3603C
:108B80003046F8BD1C60C5F8BC40F0E76FF0150634
:108B9000CDE700BFF80A0020F0B589B004460020F8
:108BA000C4E92E000E9D04F1C000C4E9300004F1B8
:108BB000C800C4E932004DB32879002840F2011002
:108BC00008BF0120C4F8D00000204FF0FF364FF05E
:108BD000FF37CDE90330CDE90100CDE906670C4B45
:108BE00000942046FFF72AF955B1296811B12046B3
:108BF000FFF762F86B791BB1237B43F0010323730A
:108C0000204609B0BDE8F04002F049BA0120D9E79A
:108C1000A18900000FB407B5064B04AA186852F8E2
:108C2000041B019200F010F903B05DF804EB04B0EE
:108C3000704700BF20BE00000CB430B589B00546B7
:108C40000C461C22002101A802F0EAFD02238DF847
:108C500006300E4B0293059523462CB1B4F1004F1C
:108C600028BF4FF00043013B1D440DAA0C99069507
:108C700001A8009200F0E8F814B1059B00221A70D8
:108C800009B0BDE8304002B0704700BF31B8000005
:108C9000242A2DE9F041044601D8012A4CD102F0E2
:108CA000CFFD354B16221A5001B10C600027384613
:108CB000BDE8F08135462E4616F8010B2028F9D084
:108CC000A0F10907042F0346F4D92B2836D02D280C
:108CD00037D14FF0010C6B78AE1C302B38D1307887
:108CE00040F0200078282FD132F010002CD173787A
:108CF0003446102202360CF1004001380027B0FB48
:108D0000F2FE02FB1E08392B82BF03F1FF3343F052
:108D10002003263B303B9A421ED9774502DC03D123
:108D2000984501D24CF0020C354607FB023715F886
:108D3000013B34462E46E6E70546BCE74FF0000C03
:108D4000C9E74FF0000CC8E7002A08BF0822D2E7A5
:108D5000002A08BF0A22CEE701B10C601CF0010F07
:108D600018BF7F421CF0020FA1D0074602F068FD39
:108D7000014B22221A509AE70C000000242AF0B579
:108D8000044601D8012A40D102F05AFD2D4B16228B
:108D90001A5001B10C600020F0BD2F463D4615F879
:108DA000010B2028F9D0A0F10906042E0346F4D9BE
:108DB0002B282CD02D282CD101267B78BD1C302BC4
:108DC0002DD1287840F02000782824D132F01000EE
:108DD00021D16B782C46102202350020392B82BF1E
:108DE00003F1FF3343F02003263B303B9A421AD96C
:108DF000A0FB02040CB9C01801D346F002062F46AE
:108E00002C4617F8013B3D46E8E70746C6E7002633
:108E1000D3E70026D3E7002A08BF0822DDE7002AAF
:108E200008BF0A22D9E701B10C60F20748BF4042EF
:108E3000B307B1D502F004FD024B22221A504FF0C5
:108E4000FF30A9E70C0000002DE9F04F8DB043681A
:108E50000293837815469A07804640F10D810024DD
:108E60000E78002E00F00A81252E0BD04B1C0393A8
:108E70000134029B4146304698470028C0F2F680F4
:108E80000399EDE74E788B1C252E0393F0D0002735
:108E9000B946BB46BBF11F0F38D8A6F12003102BF3
:108EA0000AD8DFE803F02A0909300909092109096C
:108EB0000928092D09091F00A6F13003092B33D910
:108EC0002A2E37D11BF0400F55F8043B40F082802A
:108ED000002BA7BF4BF0200B9946C3F100094BF0C4
:108EE000280B01E04BF0010B039B13F8016B03937C
:108EF000002ECFD130E04BF0020B4BF0040BF3E728
:108F00004BF0080BF0E74BF0100BEDE7BBF17F0FD8
:108F100019D8A6F13003092BD2D81BF0400F03D08B
:108F20000A2101FB0737DFE70A2101FB09394BF072
:108F3000200BD9E72E2E06D11BF0400F40F09E806B
:108F40004BF0400BD0E76C2E31D02BD8682E36D0AA
:108F50006A2E3CD04C2E3AD0002F46F02003B8BFEA
:108F60002BF04002A3F16501BCBF1FFA82FB002772
:108F7000022901D9612B2FD1073525F00705DFF82C
:108F8000ACA2083507271BF0080F66D00AEB070BC9
:108F900056465E4563D1A4EB0A0A06EB0A02A9EB2A
:108FA00007096FE1742E9FD07A2E9DD0D4E71BF075
:108FB000800F18BF4BF4007B4BF0800B94E71BF441
:108FC000807F18BF4BF4007B4BF4807B8CE74BF425
:108FD000207B89E71F4687E7A6F16301122900F28B
:108FE000F080DFE811F013004F00EE00EE00EE001D
:108FF000EE004F00EE00EE00EE00EE00EE00FE0090
:10900000E900EE00EE001B00EE00AF0055F8043B57
:109010008DF8183001270DF1180AB4E755F804ABA4
:10902000834BBAF1000F08BF9A461BF0400F14BFE4
:1090300039464FF0FF31504602F051FB0746A2E798
:10904000029B41462020984700280FDB013EB74293
:10905000F6D34C44A41BB14698E74E46F7E716F802
:10906000010B029B41469847002892DA98F802309B
:1090700043F0040388F802304FF0FF3420460DB06F
:10908000BDE8F08F1BF0800F34D01BF4007F2CD094
:10909000073525F00705AA4669685AF8080B2BF032
:1090A00010050029ADB237DA404261EB410145F4C9
:1090B00080650DF1180B0A235A4602F032FBA0EB33
:1090C0000B0301936B0662D5019B25F001019F42C2
:1090D00089B240F3A180002E00F0998015F01002B3
:1090E00040F09C80BB460D4623E0AA465AF8040B8C
:1090F000C117D4E7AA461BF4807F5AF8041B01D19C
:109100000846F5E71BF4007F15BF48B208B241F3EB
:10911000C01141F3C031C2E750EA0103C9D11BF0CD
:10912000400FC6D0002FC4D12BF0110295B2BB4620
:10913000019740F2064115EA01021CBF0BF1010B39
:1091400000222CE02BF010021FFA82FB0A231BF0F6
:10915000800C49D01BF400711DBF073525F00705B1
:10916000AA46AA461ABF5AF8080B69685AF8040BAF
:1091700050EA010545D12BF016051BF0400FADB2AA
:1091800042D0002F40D12BF0170295B2019715F075
:10919000100248D0019B002E42D103F1010B290798
:1091A0005AD4EB0706D5D9456FDD0199A9EB0B031E
:1091B0005F18CB465B4649E04BF0100B1023782636
:1091C000C5E7782B04D1C6F1780343F01003BEE75E
:1091D000029B4146252098470028FFF647AF0234FE
:1091E00047E608230026B2E7AA461BF480715AF826
:1091F000040BBDD01BF400711ABFC0B2614680B22F
:10920000B6E72BF0060295B20DF1180B54E725F0E6
:109210001105ADB2BB468CE70D46B8E73B460D469F
:1092200003F1020BBBE7DDF804B082E74CCF00008E
:1092300045CF0000CDE904324146029B20209847EB
:109240000028FFF613AF049B059A01339945F1DC22
:10925000A4EB0B01CC189B460AB3029B414630207D
:1092600098470028FFF602AF8EB901342744019BCE
:10927000391B994224DC1D465DBB019AA9EB0B0901
:10928000224455461446914435E0019F92E702344A
:1092900041463046029B98470028E7DAE6E640F26E
:1092A00006410D42E2D015F0020F14BF2B20202002
:1092B00015F4806F04F10104414618BF2D20E9E741
:1092C000029B414630209847002804F10104CEDA81
:1092D000CCE606AB013D4146585D029B984700280D
:1092E000CADAC3E6029B414620209847002804F1D1
:1092F0000104FFF6BBAEA9EB0403002BF2DCBFE5D3
:10930000704700EBC100408840087047F8B503463D
:10931000FFF7F7FFB0FA80F0C0F11F0003EB800CFD
:10932000CA00DCF81060171D0C4606328DB256B923
:10933000012101FA00F0D9680143D960CCF810404E
:10934000DD539D52F8BDF1000431585AD85303EB58
:10935000C0009E52C5805D52F4E7043A2DE9F04109
:10936000CC1D114424F0070421F007010E1BF7085F
:10937000B7FA87F2C2F12405AD004FF000080735B7
:10938000C2F12002ED0804604146A760C4F80C80D9
:10939000920004F1100002F043FA6B0043F0010365
:1093A000638004EBC5027B1B5900A4F80080518048
:1093B000A21924F83550A2F80280A35304EBC70386
:1093C00029465A8842F001025A802046BDE8F04101
:1093D000FFF79CBF002070470FB407B504A951F8F0
:1093E000040B0191FBF714FB03B05DF804EB04B030
:1093F0007047F0B5C6684568C369AF1B044640694D
:10940000BB4298BFFF1AA5EB0000944698BFF61820
:109410001A1AD81B2368AD1B62452B4428BF62462D
:109420000B606368904228BF104603446360F0BD40
:10943000D0E90123D21A8A420CD31944C368C26905
:10944000C0E90111C91A8A4201D9002070471344AA
:10945000C360FAE76FF0150070472DE9F3418046CD
:109460000E46154600272A4601A94046FFF7C1FFD0
:10947000314604460246019802F0AAF92D1B274402
:10948000264401D0002CEED139464046FFF7D0FFEC
:10949000384602B0BDE8F081F0B50446866905693A
:1094A000C069A368AF1BB842944698BF3618A3EBB7
:1094B00005022368A5EB060598BF3F1A2B446245B9
:1094C000A0EB070028BF62460B602369904228BFCB
:1094D000104603442361F0BDD0E90423D21A8A4226
:1094E0000CD31944D0E90632C0E90411C91A8A42E2
:1094F00001D90020704713448361FAE76FF015002B
:1095000070472DE9F34180460D4616460027324646
:1095100001A94046FFF7C0FF04462DB1024601995C
:10952000284602F055F92544361B274401D0002C6B
:10953000EDD139464046FFF7CFFF384602B0BDE8CF
:10954000F081704783681B6A03B11847704708B5FC
:109550004368197311B11868FFF7F4FF002008BDC4
:1095600010B5406830301C46FFF7CBFF206000206C
:1095700010BD10B5406850F8984B01F0DDFE204654
:10958000FFF7E0FFA368DB6A0BB120469847002095
:1095900010BD2DE9F04145681E462B7B0C46174651
:1095A00093B101EB0208A04507D13760D5E901313D
:1095B000012098470020BDE8F081286814F8011BBD
:1095C00083685B689847EEE705F11000FFF745FFF9
:1095D00005F1D00330600121BFF35B8F53E8002F0A
:1095E00043E800100028F9D1BFF35B8F002AE1D1D6
:1095F00028688368DB69002BDCD09847DAE72DE91F
:10960000F74304460D4683685B6C03B19847A36833
:109610005B6B0BBB4FF0000905F13008EA6C01A948
:109620004046FFF7E6FEA3680746002835D09B6951
:1096300001993BB3024620469847064628B3314677
:109640004046FFF7F5FEB7424FF00109E6D0D5E9F5
:1096500001310020984703E0204698470028D9D1DF
:10966000A3685B6A13BB05F11007EA6A01A93846D3
:10967000FFF712FF064600BB2046FFF763FFC5F861
:10968000D06025E06FF05706D9E701464046FFF766
:10969000CFFEB9F1000FE3D0D9E79B69002BF8D0DA
:1096A00001220DF1030120469847F2E72046984732
:1096B0000028D8D103B0BDE8F083A36801995B69A5
:1096C0005BB102462046984701463846FFF704FF43
:1096D000D5E9013101209847ECE76FF05701F4E735
:1096E0008268002382F856308268A2F8523082687D
:1096F000A2F85030704710B50346BFF35B8F53E8B4
:10970000000F40EA010243E80024002CF7D1BFF328
:109710005B8F10BD10B50346BFF35B8F53E8000F9E
:1097200000EA010243E80024002CF7D1BFF35B8F6D
:1097300010BDFEF7E7B973B50901856801F51F7122
:10974000044616460D4401AA6946284601F05EFF0C
:10975000009B23B1284601F056FF2046B04702B0D7
:1097600070BD08B510B1FBF797F880B208BD0EB414
:1097700003B503AA52F8041B0192FCF779FC02B06E
:109780005DF804EB03B070478B6820B903F51F70D8
:109790000021FFF7BDB803F52B70F9E700F51E7047
:1097A00019B14FF40061FFF7A6BF6FF40061FFF736
:1097B000B1BF00F51E7011B10421FFF79CBF6FF01F
:1097C0000401FFF7A7BF08B500F51D7029B10121FD
:1097D000FFF791FF00F0010008BD6FF00101FFF7F6
:1097E00099FFF7E7FEF706BAF8B5044680681F460A
:1097F000037D022B0D46164607D0BDE8F8404FF416
:10980000805100F51E70FFF776BF4FF0FF324FF02A
:10981000FF3300F54370FFF78CFFA368D3F878227D
:10982000100508D49A6C32B9D3F87432990602D56F
:10983000204600F0AEFB3B4632462946204600F06B
:109840000AFCA368D3F87822120508D49A6C32B9BE
:10985000D3F874329B0602D52046FCF713FE6069EC
:1098600000F079F8A068BDE8F84000F54370FFF714
:10987000B9BF0CB407B504AB53F8042B0193FFF741
:10988000B3FF03B05DF804EB02B070470EB403B54C
:1098900003AB082153F8042B0193FFF7A5FF02B097
:1098A0005DF804EB03B070470EB403B503AB0321BE
:1098B00053F8042B0193FFF797FF02B05DF804EB18
:1098C00003B070470EB403B503AB012153F8042B6A
:1098D0000193FFF789FF02B05DF804EB03B0704716
:1098E000F8B505460F46C9B10846FFF73AFF0646E8
:1098F000A868C822002300F54370FFF71AFF04464A
:1099000018B16FF00F042046F8BD731C142BA86823
:1099100000D836B900F54370FFF764FF6FF0150407
:10992000F1E73946FAF7B0FFAB6883F83C60A86806
:1099300000F54370FFF756FFE5E718B18368D3F8E9
:10994000240370476FF0150070478368996409B964
:10995000FFF7C6BE704710B50269836812680168D8
:109960000446C0689847236900221A6010BD38B5C4
:10997000CB681B7C022B05460C4604D10A2802D179
:109980000D20FFF7F4FF236922681B68D554226974
:1099900013680133136023691A6863689A4202D11D
:1099A0002046FFF7D8FF002038BD08B510B1FAF700
:1099B00073FF80B208BD10B5047B43892244214463
:1099C000B2FBF3F003FB1022B1FBF3F003FB10102A
:1099D000101A10BD10B5047B438921441019B1FB46
:1099E000F3F1B0FBF3F0401A10BD30B5057B4389AD
:1099F0002944B1FBF3F403FB141101312A4401346F
:109A00000180B2FBF3F103FB1122848001324C1C74
:109A1000C480428030BD2DE9F74F002607468846B6
:109A2000144699460660B2462378002B00F0BF80AA
:109A3000202B3AD0093B042B37D93B685A1C3A609B
:109A400048F823403B684B4500F0B180002622785F
:109A5000002AE9D0A6B9164623461C46272E04D074
:109A60005C2E25D0222E40F096802046FFF79DFFE9
:109A7000611C0246204601F0B9FE2278002AD3D0AC
:109A8000B242A34604F1010420D15846FFF78DFFEE
:109A900021460246584601F0A9FE9BF800605C464C
:109AA000002ED9D1C0E70026BEE704F801ABBBE722
:109AB0002046FFF77AFF651C02462946204601F042
:109AC00095FE66782C46002EC8D1ADE75C2A9BF83F
:109AD0000120D3D1B242104608D15846FFF765FFA6
:109AE00021460246584601F081FEB0E7302A25D1D2
:109AF000022300251BF80300A0F13001C9B2072999
:109B000019D8ED000133EDB2052B45EA0105F1D17D
:109B1000591E5944584601930091FFF746FF019B97
:109B20000099023BC21A584601F060FE9BF80120E2
:109B30008BF80050A2E7DBB2022BE9D1782825D1BF
:109B4000022100251BF80130A3F13000C0B2092822
:109B500008D82D01EDB20543022901D00423D7E72F
:109B60000321EFE7A3F16100052805D82D01EDB22F
:109B7000573B1D43EDB2EFE7A3F14100052803D8A1
:109B80002D01EDB2373BF4E7022902D10BF10104BC
:109B900074E70323BCE7202E85D0093E042E82D92A
:109BA0006678631C002E7FF458AF1C463CE73046B5
:109BB00003B0BDE8F08FF8B50E46114607461546CE
:109BC00001F099FD0446E0B12846FFF7EEFEA742FA
:109BD000054607D214F8013C202B02BF0135ADB277
:109BE00004F1FF342046FFF7E0FE3388421C5B1B84
:109BF000521B33806119204692B2BDE8F84001F053
:109C0000F5BDF8BD2DE9F0410F4686B01646044675
:109C100070B1034601AC00F110051868596822467E
:109C200003C20833AB421446F7D11868106001AC88
:109C30004FF00008414632462046FCF72DFA08F165
:109C40000108054628B129683846FAF713FE0028AE
:109C5000F0D1284606B0BDE8F0812DE9F0471C465A
:109C6000DDF820809DF8249000230F4616462360DF
:109C70002368BB4205461BD256F8230000F064FC63
:109C80002368824618B1013323602846F0E756F86E
:109C9000231042462846FFF7B5FF48B123685A1CF7
:109CA0002260B9F1000FE3D08045E1D12360554631
:109CB0002846BDE8F087F8B50746FFF776FE05466B
:109CC00038BBF8BD54B18AB2AA1A01300132394406
:109CD000384401F08BFD2C1BA5B20024334698B20A
:109CE0006A1E9042EDDA3A5C202A03F1010602D0A6
:109CF000093A042AF2D8B1B28BB29D42EED97B5C0C
:109D0000202B02D0093B042BDCD80134A4B2013152
:109D1000F2E700231C46E2E7F8B5846894F8563071
:109D200006462BB9B368B3F85020A3F85220F8BD0B
:109D300004F15600B4F85030C21812F8012C202A51
:109D40001CD0093A042A19D90022C25413461D46D0
:109D50000133425D202A9BB200EB0501F7D0093A9E
:109D6000042AF4D9002DDDD0B4F850707A1C521BAF
:109D70007F1B01F03BFDA4F85070D3E7013B9BB281
:109D8000A4F85030002BD5D184F85630CAE70EB471
:109D900003B503AA52F8041B0192FCF769F902B05B
:109DA0005DF804EB03B0704710B50446FAF774FD94
:109DB000B4F85030628F13FA80F3B3FBF2F102FB78
:109DC0001130B0FA80F0400910BD38B584682046E3
:109DD000FAF762FDD4F87452B4F85230C5F3400576
:109DE00080B205FB0300638FB0FBF3F203FB1200AC
:109DF000B0FA80F0400938BD10B50446FFF7E5FF22
:109E000018B9A068FFF7D0FF20B16069BDE8104025
:109E1000FCF7B2B910BDF8B584680546B4F8502017
:109E2000B4F8521004F13000FFF7DFFDA868A78EE8
:109E3000E68EFFF7B9FF10B16869FCF79DF9B742EC
:109E400007D1218E638E2846C91ABDE8F840FCF779
:109E5000AFB9E18EA38E2846C91AFCF793F9F0E753
